:100000000C940D110C9405E00C94DADF0C94AFDF26
:100010000C9484DF0C9459DF0C942EDF0C9403DFD6
:100020000C94D8DE0C943E110C943E110C943E11AD
:100030000C943E110C943E110C943E110D946003EF
:100040000C943E110C94D2490C94E8470C9464B182
:100050000C943E110C943E110C943E110C948EDEC7
:100060000C943E110D940B130D94E1120C943E115F
:100070000C943E110C943E110C943E110C943E11C4
:100080000D94BF000D9439000C94B3FF0C943E11F5
:100090000C943E110C943E110C943E110C943E11A4
:1000A0000C943E110C943E110C94C5FB0C942DFF46
:1000B0000C94EBFA0C943E110C943E110C9453FEEC
:1000C0000C9479FD0C949FFC0C943E110C943E1101
:1000D0000C943E110C943E110D94AB120D948112B0
:1000E0000C943E110C9401C50C944FD10C9459B052
:1000F0000C94FC660C9489250C9423A70C940BD2C9
:100100000C9488D20C9426D10C944AD20C9403DD22
:100110000C94CAAF0C94B45A0C94CCE00C94FBD25F
:100120000C9478770C9423D20C94E96C0C94AFDC8B
:100130000C9438D10C9419670C94C5690D94FA0984
:100140000C94C4270C9478440C941F5C0C94BAEF64
:100150000C945FD20C94166D0C94B64D0C94C76D34
:100160000C949A6D0C94DBDC0C94C7DC0C94164B4D
:100170000C94C8EF0C9468D30C94C4D20C944545ED
:100180000C9414D20C943BD20C9458D10C949B67D1
:100190000C94EFD20C94A9D20C94ADDB0C9438D211
:1001A0000C9435D20C94BCEF0C94DCD20D94040A60
:1001B0000C943E1C0C943CD10C94F2D30C947B6FA9
:1001C0000C9479D20C9408D20C94D8660C94D91261
:1001D0000C94AD770C94EED30C94C0EF0C946DD2CC
:1001E0000C9417D20C94AF6C0C94945B0C94C1D209
:1001F0000C94B4EF0C94C68F0C94F8D20C94B925DF
:100200000C9416780D94F2380C94A06C0C943A145B
:100210000C942A690C94C9E80C94E3DC0C94C4EFA8
:100220000C947DE00C9411D20D94CE090C946C6B5F
:100230000C94F5C10C9444D20C943E5B0C94635C1A
:100240000C9450D20C94D3DC0C941AD20C94FBDC9A
:100250000C9479250C9440D10C94D0D30C947DB49B
:100260000C94E76D0C9491E00C94D0EF0C94585CD6
:100270000C9497D20C94C7D20C945D250C94BB6A55
:100280000C942CD20C944CD10C94D7840C9447D25F
:100290000C942DD90C9459E00C9429D20C94FF960F
:1002A0000C94AC270C9443A10C948DAD0C94B8D253
:1002B0000C94344D0C9455720C942C6D0C9455D1B7
:1002C0000C94EBDC0C945BDC0C94612E0C941C679E
:1002D0000C9489580C94421B0C94ABDC0C94DB12EC
:1002E0000C94FBD30C94AFE80C94F0D10D94BF099F
:1002F0000C9451E00C94E1770C94E1580C94D6D313
:100300000C9449D10C945B990C942EEB0C94A3DCC7
:100310000C9465D20C9474D10C94A51F0C9466A215
:100320000C949D6D0C9400D30C94C86C0C94B5D9AE
:100330000C94F3660C94A6110C94765A0C94CB5A38
:100340000C9426D20C9421400C94A6D20C949C19A7
:100350000C94E7D10C9460E80C948BA80C9426C400
:100360000C947CD20C94275B0C94796F0C94D9EA92
:100370000C94076D0C94D6270C9470850C94D65B66
:100380000C940FA90C94F1250C94976D0C94EFDC50
:100390000C943EEB0C94E2B40C9409DC0C94BD6418
:1003A0000C94FE610C948ED20C940FDC0C9453D2FE
:1003B0000C9411DB0C94125C0C94AE650C947C2CA8
:1003C0000C94C6D10C9417E90C9448590C94CEEFB8
:1003D0000C945CD30C94C33F0C9432CA0C94096FF8
:1003E0000C94B7650C94AEA40C9486800C94E4D362
:1003F0000C94D2A60C949CD10C9457C30C9441D26B
:100400000C94AFD20C9442AF0C94076F0C9462D151
:100410000C9456D20C94BEC10C94E73E0C940ED2B0
:100420000C94076E0C94A3D20C9494A30C94F5D264
:100430000C947FB50C9460410C94BBD20C9425278E
:100440000C9458980C947AD10C94A5C20C945971C0
:100450000C9485DA0C949AD20C9432D10C9482A923
:100460000C9432D20C94DF7D0C9452D10C947D42CA
:100470000C944F1A0C94F66D0C942C5C0C94D3D203
:100480000C94896A0C949F120C94ACA50C94965C05
:100490000C9405D20C9429870C94CBDC0C943EABC5
:1004A0000C9423200D9458380C94A5D80C94723FCA
:1004B0000C94805C0C94D5D10C94FDE80C94E2254E
:1004C0000C9474580C94B3780C94C2EF0C94F7DC31
:1004D0000C94E3E80C945AD60C947D370C94246D5C
:1004E0000C94A0750C94FBA70C946B170C941366DA
:1004F0000C94105B0C94C5660C940DDC0C9453703A
:100500000C9419DB0C9420D20D9492090C94696B15
:100510000C94B5160C94B0AC0C94FA250C94D0D273
:100520000C9469380C94D8120C94D7DC0C941F6787
:100530000C94F6D30C9432650C94BFE00C94DE65F9
:100540000C940D650C94EA660C946AD20C94DC123F
:100550000C94661F0C94D5440C948CC40C94F9D95B
:100560000C94AD5B0C9498670C94BA180D94F00938
:100570000C9429D10C9485D20C94145A0C94FCD36D
:100580000C9400D40C948F5A0C94CCEF0C946BD137
:100590000C94DDAB0C94B0580C94093F0C94A0D291
:1005A0000C94E25B0C9401DC0C9473D20C943ED25C
:1005B0000C9437D80C94E0C50C946ED10C946E66F4
:1005C0000C943BA30C948BD20C94ACD20C94FFD122
:1005D0000C9443D10C94DFD10D948F350C943B16C1
:1005E0000C9452650C941C270D94FF360C94FEDD80
:1005F0000C9476D20C946A270C9435D10C9494D236
:100600000C9446D10C94946D0C94DB140C94B4654A
:100610000C94C6310C945FD10C94F3D10C944C67BC
:100620000C94793A0C94B1650C94D3670C94C6EF92
:100630000C940A690C94997A0D9493130C941442B7
:100640000D949A380C942FD10C94216D0C940B6F4F
:100650000C942E270C9446E00C9404D40C94BB27E5
:100660000C9441B10C945CA60C945DE00C94AE6EBD
:100670000C94F9D10C94C1D30C9467D20C94F3DC94
:100680000C94BBD30C949DD20C94FB400C9415DBC2
:100690000C9489850C94CDDA0C94DFD20C9402D2A0
:1006A0000C948C6E0C945B400C94E2D10C943CAA9C
:1006B0000C945BE00C941EEB0C94536D0C9440274F
:1006C0000C94FCD10C9471D10C945CD20C9409184C
:1006D0000C94E9AC0C9481EA0C948D640C941E2665
:1006E0000C94D9810C94B5DB0C9447390C94674E6B
:1006F0000C9405B40C940F770C946B250C9416672E
:100700000C94BBDC0C94BD4A0D946E360D94E2093A
:100710000C9465660C94CD270C94F85B0C94B3E0B4
:100720000C94AD6F0C949E4A0C94B7DC0C945992C7
:100730000C94BFD10C9415400C94E0D30C9465DB61
:100740000C948B5C0C942F130C94B2D20C944943F0
:100750000C9491D20C942CD10C94CED10C94D71231
:100760000C944A780C94CDCA0C94A9DB0C9465D1F6
:100770000C94BEEF0C942FD20C94EDD10C9453DC5E
:100780000C941F400C94B1DB0C94C3DC0C9461DB23
:100790000C9462D20C94DF850C942F6D0C941AAEDD
:1007A0000C9422670C9462750C941B4C0C94F4B25C
:1007B0000C9476850C94B4C90C9452790C94B86E50
:1007C0000C94E4AA0C94B66E0C94C9DA0C94546B95
:1007D0000D942C380C94E8270C949EE00C94C4CB18
:1007E0000C94CAEF0C941B940C94BE410C9463259A
:1007F0000C943DDA0C94BFDC0C9414CE0C9482B3B0
:100800000D946E350C94DAD30C94CAD20C94E7DCB8
:100810000C9405670C94F2D20C94E8D30C94DA256E
:100820000C94D2120D94EA370C94141D0C94A22748
:100830000C94DC6C0C9427D40C9403260C94C95BA8
:100840000C9453E00C94ECD20C947F780C94D384E9
:100850000C9495640C94507B0C94E7CC0C94AF6F83
:100860000C9447120C94C5D30C9459D20C945FDCB1
:100870000C94E25A0C9442C20C9405A30C942E2FB3
:100880000C9468D10C949AD60C94DD120C941940F7
:100890000C944DD20C941DD20C9410870C94742798
:1008A0000C9485E00C94DC6D0C94FC6C0C947BE94E
:1008B0000C94E6D20C941DDE0C94DF270C94B5D278
:1008C0000C94E9D20C940C6A0C9440110C941526EB
:1008D0000C945DDB0C9470D20C94326D0C94973BAD
:1008E0000C940D270C9425670C9408670C94CDD3B9
:1008F0000C94BDDB0C94276D0C949A6C0C9477D1FE
:100900000C948C650C9457DC0C9482D20D94C638F0
:100910000C94CF4A0C94506B0C94397F0C94DA12DF
:100920000C944D5C0C9455E00C9481DA0C94DFDC53
:100930000C940D440C948BE80C947FD20C94D2EF61
:100940000C942D5A0C94CFDC0C94A06D0C94B37CB9
:100950000C94EB820C94B6EF0C94A7DC0C94B8EFDB
:100960000C94A6C50C9483400C94D9D20C94F6D167
:100970000C94FFDC0C94CDD20C941B400C94656855
:100980000C94D3650C940C260C94DC670C94C94C25
:100990000C94E5120C948E650C941C660C947225D4
:1009A0000C9491EA0C94395C0C941D400C94BED2CA
:1009B0000C94B9DB0C94C9580C9405DC0C9462358A
:1009C0000C94C9D30C94A3EA0C94B3DC0C947285F8
:1009D0000C94E41F0D94510A0C949E120C94B16473
:1009E0000C948A860C9455130C9434860C94E9422A
:1009F0000C9444B30C942B650C9444770C94B1255F
:100A00000C94E3D20C9412270C94D6D20C94E16689
:100A10000C9457710C94AF430C94CF860C94DA6409
:100A2000526573657420636F6E74726F6C206973A6
:100A30002063757272656E746C792064697361628B
:100A40006C65642E00436F6D6D732068616C746516
:100A5000642E204E65787420627974652077696C05
:100A60006C207265736574207468652041726475CA
:100A7000696E6F2E0000537065656475696E6F2D29
:100A8000425A4F00737065656475696E6F20425AF3
:100A90004F00000030303200FF0A50616765206867
:100AA0006173206E6F74206265656E20696D706C75
:100AB000656D656E74656420796574000A426F6FB8
:100AC0007374206C6F6F6B7570207461626C65005D
:100AD0000A326E642049676E6974696F6E204D61D9
:100AE00070000A326E64204675656C204D6170009E
:100AF0000A50616765203920436667000A547269AD
:100B00006D2031205461626C65000A565654204DA8
:100B10006170000A426F6F7374204D6170000A505B
:100B200067203620436F6E666967000A414652208F
:100B30004D6170000A5067203420436667000A49FF
:100B4000676E6974696F6E204D6170000A5067208E
:100B50003220436667000A5645204D617000457299
:100B6000723A20556E6B6E6F776E20636D64000A6B
:100B70003D3D3D436F6D6D616E642048656C703D19
:100B80003D3D0A0A416C6C20636F6D6D616E64734C
:100B9000206172652073696E676C6520636861729D
:100BA000616374657220616E642061726520636F99
:100BB0006E636174656E6174656420776974682022
:100BC000746865697220706172616D6574657273B5
:100BD000200A776974686F75742073706163657338
:100BE0002E53796E7461783A20203C636F6D6D618D
:100BF0006E643E2B3C706172616D65746572313E4E
:100C00002B3C706172616D65746572323E2B3C7075
:100C10006172616D657465724E3E0A0A3D3D3D4CE0
:100C2000697374206F6620436F6D6D616E64733DF0
:100C30003D3D0A0A41202D20446973706C6179732F
:100C4000203331206279746573206F66206375727A
:100C500072656E745374617475732076616C75651A
:100C60007320696E2062696E61727920286C6976E2
:100C7000652064617461290A42202D204275726EDC
:100C80002063757272656E74206D617020616E6490
:100C900020636F6E666967506167652076616C7569
:100CA000657320746F20656570726F6D0A43202D27
:100CB000205465737420434F4D20706F72742E2042
:100CC00020557365642062792054756E6572737463
:100CD0007564696F20746F2073656520776865742B
:100CE00068657220616E20454355206973206F6EE0
:100CF000206120676976656E2073657269616C207A
:100D00000A20202020706F72742E20526574757234
:100D10006E7320612062696E617279206E756D62FA
:100D200065722E0A4E202D205072696E74206E65F9
:100D300077206C696E652E0A50202D205365742033
:100D400063757272656E7420706167652E20205322
:100D5000796E7461783A2020502B3C706167654E43
:100D6000756D6265723E0A52202D2053616D6520BB
:100D70006173204120636F6D6D616E640A53202D95
:100D800020446973706C6179207369676E61747552
:100D90007265206E756D6265720A51202D20536157
:100DA0006D65206173205320636F6D6D616E640A01
:100DB00056202D20446973706C6179206D6170201C
:100DC0006F7220636F6E6669675061676520766138
:100DD0006C75657320696E2062696E6172790A575D
:100DE000202D20536574206F6E6520627974652014
:100DF000696E206D6170206F7220636F6E66696727
:100E0000506167652E202045787065637473206299
:100E1000696E61727920706172616D65746572735B
:100E20002E200A2020202053796E7461783A2020E9
:100E3000572B3C6F66667365743E2B3C6E6577621C
:100E40007974653E0A74202D205365742063616CAB
:100E50006962726174696F6E2076616C7565732E5C
:100E60002020457870656374732062696E617279C1
:100E700020706172616D65746572732E20205461FB
:100E8000626C6520696E6465782069732065697499
:100E900068657220302C200A20202020312C206F01
:100EA0007220322E202053796E7461783A2020749B
:100EB0002B3C74626C655F6964783E2B3C6E657791
:100EC00056616C7565313E2B3C6E657756616C756D
:100ED00065323E2B3C6E657756616C75654E3E0AF9
:100EE0005A202D20446973706C61792063616C69AC
:100EF00062726174696F6E2076616C7565730A54F5
:100F0000202D20446973706C61797320323536204E
:100F1000746F6F7468206C6F6720656E747269659A
:100F20007320696E2062696E6172790A72202D20C9
:100F3000446973706C6179732032353620746F6F39
:100F40007468206C6F6720656E74726965730A55EA
:100F5000202D205072657061726520666F72206668
:100F600069726D77617265207570646174652E2099
:100F7000546865206E6578742062797465207265A6
:100F80006365697665642077696C6C20636175734D
:100F900065207468652041726475696E6F20746F96
:100FA0002072657365742E0A3F202D20446973708A
:100FB0006C61797320746869732068656C70207047
:100FC000616765002C2000575545004F3200496E7F
:100FD0006C65742074656D7000436F6F6C616E7426
:100FE00000526573657420636F6E74726F6C206954
:100FF000732063757272656E746C792064697361B5
:10100000626C65642E00436F6D6D732068616C7453
:1010100065642E204E657874206279746520776946
:101020006C6C20726573657420746865204172640D
:1010300075696E6F2E00537065656475696E6F2DEE
:10104000425A4F00737065656475696E6F20425A2D
:101050004F004552523B20496E636F727265637454
:1010600020454550524F4D2073697A65003030322B
:101070000020002000200020002020202000000070
:10108000800020012001800020018000F00080010C
:10109000C000C0002001C000800020010001040E3B
:1010A00011161A1C212A2C2E30323436383A3C3E86
:1010B00040424446484C4E505256585A5D5F636811
:1010C0006F7900000000963007772C610EEEBA5160
:1010D000099919C46D078FF46A7035A563E9A39562
:1010E000649E3288DB0EA4B8DC791EE9D5E088D98D
:1010F000D2972B4CB609BD7CB17E072DB8E7911D68
:10110000BF906410B71DF220B06A4871B9F3DE4198
:10111000BE847DD4DA1AEBE4DD6D51B5D4F4C78515
:10112000D38356986C13C0A86B647AF962FDECC93E
:10113000658A4F5C0114D96C0663633D0FFAF50DA7
:10114000088DC8206E3B5E10694CE44160D5727119
:1011500067A2D1E4033C47D4044BFD850DD26BB5A7
:101160000AA5FAA8B5356C98B242D6C9BBDB40F9DE
:10117000BCACE36CD832755CDF45CF0DD6DC593D95
:10118000D1ABAC30D9263A00DE518051D7C81661B8
:10119000D0BFB5F4B42123C4B3569995BACF0FA5E7
:1011A000BDB89EB802280888055FB2D90CC624E9EC
:1011B0000BB1877C6F2F114C6858AB1D61C13D2D61
:1011C00066B69041DC760671DB01BC20D2982A100D
:1011D000D5EF8985B1711FB5B606A5E4BF9F33D49D
:1011E000B8E8A2C9077834F9000F8EA809961898B4
:1011F0000EE1BB0D6A7F2D3D6D08976C6491015C1B
:1012000063E6F4516B6B62616C1CD83065854E00EF
:1012100062F2ED95066C7BA5011BC1F4088257C4F0
:101220000FF5C6D9B06550E9B712EAB8BE8B7C8815
:10123000B9FCDF1DDD62492DDA15F37CD38C654CDA
:10124000D4FB5861B24DCE51B53A7400BCA3E23024
:10125000BBD441A5DF4AD795D83D6DC4D1A4FBF4DA
:10126000D6D36AE96943FCD96E34468867ADD0B8F5
:1012700060DA732D0444E51D03335F4C0AAAC97C70
:101280000DDD3C710550AA41022710100BBE8620CF
:101290000CC925B56857B3856F2009D466B99FE49A
:1012A00061CE0EF9DE5E98C9D9292298D0B0B4A8D3
:1012B000D7C7173DB359810DB42E3B5CBDB7AD6C9C
:1012C000BAC02083B8EDB6B3BF9A0CE2B6039AD287
:1012D000B1743947D5EAAF77D29D1526DB04831662
:1012E000DC73120B63E3843B64943E6A6D0DA85A71
:1012F0006A7A0BCF0EE49DFF099327AE000AB19ED8
:10130000077D44930FF0D2A3088768F2011EFEC246
:1013100006695D5762F7CB67658071366C19E70621
:101320006B6E761BD4FEE02BD3895A7ADA10CC4A46
:10133000DD676FDFB9F9F9EFBE8E43BEB717D58E03
:10134000B060E8A3D6D67E93D1A1C4C2D83852F2F9
:10135000DF4FF167BBD16757BCA6DD06B53F4B3603
:10136000B248DA2B0DD84C1B0AAFF64A0336607A26
:101370000441C3EF60DF55DF67A8EF8E6E3179BEA1
:1013800069468CB361CB1A8366BCA0D26F2536E266
:10139000685295770CCC03470BBBB91602222F2657
:1013A0000555BE3BBAC5280BBDB2925AB42B046A90
:1013B000B35CA7FFD7C231CFD0B58B9ED92C1DAE61
:1013C000DE5BB0C2649B26F263EC9CA36A750A9351
:1013D0006D02A906099C3F360EEB8567077213570D
:1013E0000005824ABF95147AB8E2AE2BB17B381B58
:1013F000B60C9B8ED2920DBED5E5B7EFDC7C21DF1B
:10140000DB0BD4D2D38642E2D4F1F8B3DD686E832D
:10141000DA1FCD16BE815B26B9F6E177B06F77474C
:10142000B718E65A0888706A0FFFCA3B06665C0B5D
:101430000111FF9E658F69AE62F8D3FF6B6145CFE6
:101440006C1678E20AA0EED20DD75483044EC2B3D4
:101450000339612667A7F71660D04D476949DB77E6
:101460006E3E4A6AD1AEDC5AD6D9660BDF40F03BFD
:10147000D83753AEBCA9C59EBBDE7FCFB247E9FFCC
:10148000B5301CF2BDBD8AC2BACA3093B353A6A30D
:10149000B4240536D0BA9306D7CD2957DE54BF679A
:1014A000D9232E7A66B3B84A61C4021B685D942BB7
:1014B0006F2A37BE0BB4A18E0CC31BDF055A8DEF0C
:1014C000022D0000000041311B1982623632C353E5
:1014D0002D2B04C56C6445F4777D86A75A56C796B4
:1014E000414F088AD9C849BBC2D18AE8EFFACBD9A3
:1014F000F4E30C4FB5AC4D7EAEB58E2D839ECF1C64
:1015000098875112C24A1023D953D370F47892416C
:10151000EF6155D7AE2E14E6B537D7B5981C968433
:10152000830559981B8218A9009BDBFA2DB09ACB32
:1015300036A95D5D77E61C6C6CFFDF3F41D49E0EE3
:101540005ACDA2248495E3159F8C2046B2A76177DB
:10155000A9BEA6E1E8F1E7D0F3E82483DEC365B2D3
:10156000C5DAAAAE5D5DEB9F464428CC6B6F69FD82
:101570007076AE6B3139EF5A2A202C09070B6D3883
:101580001C12F33646DFB2075DC6715470ED30654C
:101590006BF4F7F32ABBB6C231A275911C8934A053
:1015A0000790FBBC9F17BA8D840E79DEA92538EF12
:1015B000B23CFF79F373BE48E86A7D1BC5413C2A03
:1015C000DE58054F79F0447E62E9872D4FC2C61C74
:1015D00054DB018A159440BB0E8D83E823A6C2D943
:1015E00038BF0DC5A0384CF4BB218FA7960ACE9604
:1015F0008D130900CC5C4831D7458B62FA6ECA5313
:10160000E177545DBBBA156CA0A3D63F8D88970EC9
:1016100096915098D7DE11A9CCC7D2FAE1EC93CBC2
:10162000FAF55CD762721DE6796BDEB554409F8493
:101630004F5958120E161923150FDA7038249B4192
:10164000233DA76BFD65E65AE67C2509CB57643838
:10165000D04EA3AE9101E29F8A1821CCA73360FD42
:10166000BC2AAFE124ADEED03FB42D83129F6CB203
:101670000986AB2448C9EA1553D029467EFB687712
:1016800065E2F6793F2FB7482436741B091D352AC9
:101690001204F2BC534BB38D485270DE657931EFC2
:1016A0007E60FEF3E6E7BFC2FDFE7C91D0D53DA093
:1016B000CBCCFA368A83BB07919A7854BCB1396592
:1016C000A7A84B98833B0AA99822C9FAB50988CBE9
:1016D000AE104F5DEF5F0E6CF446CD3FD96D8C0EB2
:1016E000C27443125AF3022341EAC1706CC18041B3
:1016F00077D847D7369706E62D8EC5B500A58484E2
:101700001BBC1A8A41715BBB5A6898E87743D9D9E8
:101710006C5A1E4F2D155F7E360C9C2D1B27DD1C31
:10172000003E120098B9533183A09062AE8BD15322
:10173000B59216C5F4DD57F4EFC494A7C2EFD59661
:10174000D9F6E9BC07AEA88D1CB76BDE319C2AEF39
:101750002A85ED796BCAAC4870D36F1B5DF82E2AD1
:1017600046E1E136DE66A007C57F6354E854226592
:10177000F34DE5F3B202A4C2A91B6791843026A001
:101780009F29B8AEC5E4F99FDEFD3ACCF3D67BFDC8
:10179000E8CFBC6BA980FD5AB2993E099FB27F3851
:1017A00084ABB0241C2CF115073532462A1E737702
:1017B0003107B4E17048F5D06B513683467A77B281
:1017C0005D634ED7FACB0FE6E1D2CCB5CCF98D8470
:1017D000D7E04A1296AF0B238DB6C870A09D894101
:1017E000BB84465D2303076C381AC43F1531850E50
:1017F0000E2842984F6703A9547EC0FA795581CBD1
:10180000624C1FC538815EF423989DA70EB3DC9609
:1018100015AA1B0054E55A314FFC996262D7D85380
:1018200079CE174FE149567EFA50952DD77BD41CBF
:10183000CC62138A8D2D52BB963491E8BB1FD0D950
:10184000A006ECF37E5EADC265476E91486C2FA09A
:101850005375E836123AA90709236A5424082B6500
:101860003F11E479A796A548BC8F661B91A4272A4F
:101870008ABDE0BCCBF2A18DD0EB62DEFDC023EFD0
:10188000E6D9BDE1BC14FCD0A70D3F838A267EB209
:10189000913FB924D070F815CB693B46E6427A7780
:1018A000FD5BB56B65DCF45A7EC5370953EE7638BF
:1018B00048F7B1AE09B8F09F12A133CC3F8A72FD50
:1018C000249300000000376AC2016ED4840359BE1D
:1018D0004602DCA80907EBC2CB06B27C8D04851654
:1018E0004F05B851130E8F3BD10FD685970DE1EF01
:1018F000550C64F91A095393D8080A2D9E0A3D47DE
:101900005C0B70A3261C47C9E41D1E77A21F291D6E
:10191000601EAC0B2F1B9B61ED1AC2DFAB18F5B537
:101920006919C8F23512FF98F713A626B111914C28
:101930007310145A3C152330FE147A8EB8164DE4F9
:101940007A17E0464D38D72C8F398E92C93BB9F8BB
:101950000B3A3CEE443F0B84863E523AC03C655005
:10196000023D58175E366F7D9C3736C3DA3501A9C4
:10197000183484BF5731B3D59530EA6BD332DD01CB
:10198000113390E56B24A78FA925FE31EF27C95BA2
:101990002D264C4D62237B27A0222299E62015F3A9
:1019A000242128B4782A1FDEBA2B4660FC29710A4C
:1019B0003E28F41C712DC376B32C9AC8F52EADA227
:1019C000372FC08D9A70F7E75871AE591E7399334F
:1019D000DC721C2593772B4F517672F11774459B5F
:1019E000D57578DC897E4FB64B7F16080D7D216258
:1019F000CF7CA4748079931E4278CAA0047AFDCA71
:101A0000C67BB02EBC6C87447E6DDEFA386FE990E1
:101A1000FA6E6C86B56B5BEC776A025231683538CA
:101A2000F369087FAF623F156D6366AB2B6151C1EF
:101A3000E960D4D7A665E3BD6464BA0322668D6904
:101A4000E06720CBD74817A115494E1F534B797536
:101A5000914AFC63DE4FCB091C4E92B75A4CA5DD70
:101A6000984D989AC446AFF00647F64E4045C124BB
:101A700082444432CD4173580F402AE649421D8CBE
:101A80008B435068F154670233553EBC755709D6F5
:101A9000B7568CC0F853BBAA3A52E2147C50D57E9C
:101AA000BE51E839E25ADF53205B86ED6659B187B3
:101AB000A4583491EB5D03FB295C5A456F5E6D2F92
:101AC000AD5F801B35E1B771F7E0EECFB1E2D9A58C
:101AD00073E35CB33CE66BD9FEE73267B8E5050D0E
:101AE0007AE4384A26EF0F20E4EE569EA2EC61F429
:101AF00060EDE4E22FE8D388EDE98A36ABEBBD5C1C
:101B000069EAF0B813FDC7D2D1FC9E6C97FEA90616
:101B100055FF2C101AFA1B7AD8FB42C49EF975AEF9
:101B20005CF848E900F37F83C2F2263D84F0115748
:101B300046F1944109F4A32BCBF5FA958DF7CDFF2F
:101B40004FF6605D78D95737BAD80E89FCDA39E399
:101B50003EDBBCF571DE8B9FB3DFD221F5DDE54BBB
:101B600037DCD80C6BD7EF66A9D6B6D8EFD481B2E4
:101B70002DD504A462D033CEA0D16A70E6D35D1A0D
:101B800024D210FE5EC527949CC47E2ADAC6494042
:101B900018C7CC5657C2FB3C95C3A282D3C195E867
:101BA00011C0A8AF4DCB9FC58FCAC67BC9C8F11164
:101BB0000BC9740744CC436D86CD1AD3C0CF2DB961
:101BC00002CE4096AF9177FC6D902E422B92192851
:101BD000E9939C3EA696AB546497F2EA2295C580A1
:101BE000E094F8C7BC9FCFAD7E9E9613389CA17938
:101BF000FA9D246FB598130577994ABB319B7DD127
:101C0000F39A3035898D075F4B8C5EE10D8E698BC1
:101C1000CF8FEC9D808ADBF7428B82490489B52304
:101C2000C68888649A83BF0E5882E6B01E80D1DAD7
:101C3000DC8154CC938463A651853A1817870D72C2
:101C4000D586A0D0E2A997BA20A8CE0466AAF96EDC
:101C5000A4AB7C78EBAE4B1229AF12AC6FAD25C6AE
:101C6000ADAC1881F1A72FEB33A6765575A4413F93
:101C7000B7A5C429F8A0F3433AA1AAFD7CA39D9778
:101C8000BEA2D073C4B5E71906B4BEA740B689CDCD
:101C900082B70CDBCDB23BB10FB3620F49B15565D2
:101CA0008BB06822D7BB5F4815BA06F653B8319C93
:101CB00091B9B48ADEBC83E01CBDDA5E5ABFED3454
:101CC00098BE000000006567BCB88BC809AAEEAFDB
:101CD000B5125797628F32F0DE37DC5F6B25B9386B
:101CE000D79DEF28B4C58A4F087D64E0BD6F01879A
:101CF00001D7B8BFD64ADDD86AF23377DFE0561095
:101D000063589F571950FA30A5E8149F10FA71F8DC
:101D1000AC42C8C07BDFADA7C76743087275266FAA
:101D2000CECD707FAD951518112DFBB7A43F9ED079
:101D3000188727E8CF1A428F73A2AC20C6B0C947D4
:101D40007A083EAF32A05BC88E18B5673B0AD00058
:101D500087B26938502F0C5FEC97E2F0598587976E
:101D6000E53DD1878665B4E03ADD5A4F8FCF3F28F5
:101D700033778610E4EAE37758520DD8ED4068BF18
:101D800051F8A1F82BF0C49F97482A30225A4F5798
:101D90009EE2F66F497F9308F5C77DA740D518C02E
:101DA000FC6D4ED09F352BB7238DC518969FA07F15
:101DB0002A271947FDBA7C204102928FF410F7E8D8
:101DC00048A83D58149B583FA823B6901D31D3F71F
:101DD000A1896ACF76140FA8CAACE1077FBE8460E0
:101DE000C306D270A05EB7171CE659B8A9F43CDF51
:101DF000154C85E7C2D1E0807E690E2FCB7B6B4806
:101E000077C3A20F0DCBC768B17329C704614CA07B
:101E1000B8D9F5986F4490FFD3FC7E5066EE1B371F
:101E2000DA564D27B90E284005B6C6EFB0A4A388F0
:101E30000C1C1AB0DB817FD767399178D22BF41F45
:101E40006E9303F7263B66909A83883F2F91ED5857
:101E50009329546044B43107F80CDFA84D1EBACF63
:101E6000F1A6ECDF92FE89B82E4667179B540270EC
:101E700027ECBB48F071DE2F4CC93080F9DB55E709
:101E800045639CA03F6BF9C783D3176836C1720FB7
:101E90008A79CB375DE4AE50E15C40FF544E259823
:101EA000E8F673888BAE16EF3716F84082049D274C
:101EB0003EBC241FE92141785599AFD7E08BCAB0C9
:101EC0005C333BB659ED5ED1E555B07E5047D51930
:101ED000ECFF6C213B62094687DAE7E932C8828E63
:101EE0008E70D49EED28B1F951905F56E4823A315C
:101EF000583A83098FA7E66E331F08C1860D6DA679
:101F00003AB5A4E140BDC186FC052F2949174A4EC8
:101F1000F5AFF376223296119E8A78BE2B981DD9A2
:101F200097204BC9F4782EAE48C0C001FDD2A566FB
:101F3000416A1C5E96F779392A4F97969F5DF2F1B8
:101F400023E505196B4D607ED7F58ED162E7EBB6C0
:101F5000DE5F528E09C237E9B57AD9460068BC21E6
:101F6000BCD0EA31DF888F56633061F9D622049EF7
:101F70006A9ABDA6BD07D8C101BF366EB4AD53097C
:101F800008159A4E721DFF29CEA511867BB774E104
:101F9000C70FCDD91092A8BEAC2A461119382376A6
:101FA000A5807566C6D810017A60FEAECF729BC957
:101FB00073CA22F1A457479618EFA939ADFDCC5E3C
:101FC000114506EE4D766389F1CE8D2644DCE8415D
:101FD000F86451792FF9341E9341DAB12653BFD6F4
:101FE0009AEBE9C6F9B38CA1450B620EF0190769AB
:101FF0004CA1BE519B3CDB3627843599929650FE0E
:102000002E2E99B95426FCDEE89E12715D8C77164F
:10201000E134CE2E36A9AB498A1145E63F03208133
:1020200083BB7691E0E313F65C5BFD59E949983E8A
:1020300055F12106826C44613ED4AACE8BC6CFA94D
:10204000377E38417FD65D26C36EB389767CD6EE67
:10205000CAC46FD61D590AB1A1E1E41E14F38179F7
:10206000A84BD769CB13B20E77AB5CA1C2B939C606
:102070007E0180FEA99CE59915240B36A0366E5191
:102080001C8EA7166686C271DA3E2CDE6F2C49B90B
:10209000D394F081040995E6B8B17B490DA31E2EB7
:1020A000B11B483ED2432D596EFBC3F6DBE9A69126
:1020B00067511FA9B0CC7ACE0C749461B966F10651
:1020C00005DE00002100240027002A002D0030003A
:1020D000330001010000040107010A010000220091
:1020E000250028002B002E003100340002010000E2
:1020F000050108010B010000200023002600290033
:102100002C002F003200000100000301060109012C
:1021100005050505070508080808020202020A0A63
:102120000808040404040101010101010101030381
:10213000030303030303040707070C0C0C0C0C0C2C
:102140000C0C0202020206060606060606060B0B29
:102150000B0B0B0B0B0B010210202008081020406A
:10216000102040800201020108040201010204085B
:1021700010204080804020100804020180040201E9
:102180008040201008040201080402010102040832
:1021900010204080010204081020408000000A0B3B
:1021A00002090C0D0E0807030401000000000000E6
:1021B000000000000000000000000000000000001F
:1021C00000000000000000001211100000000000DC
:1021D00000000000000000000000000000000000FF
:1021E0000000537065656475696E6F0053706565B6
:1021F0006475696E6F20323031392E30382D736539
:102200007200537065656475696E6F206373783012
:10221000323031392E3800001C0311241FBECFEF9D
:10222000D1E2DEBFCDBF00E00CBF12E0A0E0B2E023
:10223000E4EDFAE802E00BBF02C007900D92AC3764
:10224000B107D9F720E2ACE7B2E001C01D92AB3490
:10225000B207E1F711E1CDE0D1E100E006C021973E
:102260000109802FFE010F943E45CC30D10780E05C
:102270000807A9F70F9421160D9468450C940000E7
:102280008091210B9091220B2091261D3091271DCA
:10229000AC0144505109241735070CF04BC0821B88
:1022A000930B97FD019695958795049790936D05EF
:1022B00080936C058091780590917905AC0144502C
:1022C000510924173507CCF5821B930B97FD019616
:1022D00095958795049790936B0580936A058091F7
:1022E000760590917705AC014450510924173507C4
:1022F0003CF5821B930B97FD019695958795049766
:102300009093690580936805809174059091750597
:10231000AC014450510924173507ACF4821B930BD0
:1023200097FD0196959587950497909367058093FF
:102330006605089580539D4FB2CF80539D4FC4CF03
:1023400080539D4FD6CF80539D4FE8CFCF92DF92E1
:10235000EF92FF9280919F1E882309F495C080918F
:10236000AD0D9091AE0DA091AF0DB091B00D892B38
:102370008A2B8B2B09F488C08091A90D9091AA0D0E
:10238000A091AB0DB091AC0D892B8A2B8B2B09F44E
:102390007BC08091111F9091121FA091131FB091CB
:1023A000141F0297A105B10508F04CC0F8942091C4
:1023B000AD0D3091AE0D4091AF0D5091B00D8091AB
:1023C000A90D9091AA0DA091AB0DB091AC0D281B59
:1023D000390B4A0B5B0BA4EBB0E00F9464436093A2
:1023E000B20D7093B30D8093B40D9093B50D7894A6
:1023F000C090B20DD090B30DE090B40DF090B50D3B
:1024000060E077E883E993E0A70196010F94134316
:10241000C901803526E4920720F08091A01E90919A
:10242000A11ECC0CDD1CEE1CFF1CC0921C02D09225
:102430001D02E0921E02F0921F02FF90EF90DF90CB
:10244000CF900895F8948091FC069091FD06A0919C
:10245000FE06B091FF064091BC065091BD0660910A
:10246000BE067091BF06841B950BA60BB70BB695E5
:10247000A795979587958093B20D9093B30DA093F0
:10248000B40DB093B50DB3CF90E080E0D6CF80917E
:10249000D61E9091321D9C719C3091F58A30CCF003
:1024A00088E090E090936D0580936C0582E090E069
:1024B00090936B0580936A0584E090E090936905A2
:1024C0008093680586E090E09093670580936605A9
:1024D00008951816ECF781E090E090936D058093D5
:1024E0006C0583E090E090936B0580936A0585E02E
:1024F00090E0909369058093680587E090E0E4CFD1
:102500008A308CF024E030E030936D0520936C0528
:1025100082E090E090936B0580936A0530936905A3
:1025200020936805D1CF18169CF621E030E0309357
:102530006D0520936C0583E090E0ECCF08958091C9
:102540009F1E81110EC01092C1061092C00681E03C
:1025500080939F1E83E08093D60C81E08093BB061E
:10256000089580912C1D87FF05C01092C10610921E
:10257000C006F0CF8091111F9091121FA091131FE0
:10258000B091141F84369105A105B10530F78091F3
:10259000C0069091C1068D9701F31092C10610926A
:1025A000C006DBCF1092C1061092C00608950895B0
:1025B000089508950895089508951092C1061092FF
:1025C000C00681E08093BB0608958091610C807FF6
:1025D000803479F58091321D8C718C30C9F488E09B
:1025E00090E090936D0580936C0582E090E090936D
:1025F0006B0580936A0584E090E090936905809371
:10260000680586E090E090936705809366050895DD
:1026100024E030E030936D0520936C0582E090E07B
:1026200090936B0580936A05309369052093680544
:10263000EACF803661F78091321D8C718C3079F24F
:1026400086E090E090936D0580936C0582E090E0C9
:1026500090936B0580936A0524E030E0E5CF80918C
:10266000D61E82319CF487E090E090936D058093B4
:102670006C0582E090E090936B0580936A0585E09D
:1026800090E09093690580936805089586E090E056
:1026900090936D0580936C0581E090E090936B05BD
:1026A00080936A0584E090E0ECCF8091210B9091BB
:1026B000220B2091261D3091271D821B930B209108
:1026C0001702309118028217930764F0821B930B54
:1026D0002091610C22952F70243079F040F4233042
:1026E00031F1089597FFF4CF820F931FF1CF263079
:1026F000F1F0283009F456C008950197843B910504
:1027000068F082E090E090936D0580936C0581E025
:1027100090E090936B0580936A05089581E090E0C6
:1027200090936D0580936C0582E090E0F2CF9C0160
:10273000295731092837310598F482E090E09093C9
:102740006D0580936C0583E090E090936B0580931A
:102750006A0581E090E0909369058093680508958B
:102760000197803F910578F083E090E090936D05AC
:1027700080936C0581E090E090936B0580936A05EF
:1027800082E090E0E8CF81E090E090936D05809347
:102790006C0582E090E090936B0580936A0583E07E
:1027A00090E0D9CF9C012B5531092A353105C8F469
:1027B00082E090E090936D0580936C0583E090E05B
:1027C00090936B0580936A0584E090E0909369058F
:1027D0008093680581E090E090936705809366059B
:1027E00008959C01255B31092A353105A8F483E061
:1027F00090E090936D0580936C0584E090E0909359
:102800006B0580936A0581E090E090936905809361
:10281000680582E090E0E0CF01978E309140A8F00B
:1028200084E090E090936D0580936C0581E090E0EA
:1028300090936B0580936A0582E090E09093690520
:102840008093680583E090E0C7CF81E090E09093AB
:102850006D0580936C0582E090E090936B0580930A
:102860006A0583E090E0909369058093680584E0B1
:1028700090E0B2CF2091351D8091321D8C718C304B
:1028800021F480912B1D322F81FD30E0E091261D37
:10289000F091271D6091A70D7091A80D8091210BDB
:1028A0009091220B8E1B9F0B0F94CC42230F33274A
:1028B000331F261737070CF05DC0621B730B709334
:1028C0006D0560936C056091A70D7091A80D8091C6
:1028D0007805909179058E1B9F0B0F94CC4226179B
:1028E00037070CF04EC0621B730B70936B0560933F
:1028F0006A056091A70D7091A80D80917605909161
:1029000077058E1B9F0B0F94CC42261737070CF0D0
:102910003FC0621B730B70936905609368056091FB
:10292000A70D7091A80D80917405909175058E1B6F
:102930009F0B0F94CC42261737078CF5621B730B45
:1029400070936705609366056091A70D7091A80D5F
:1029500080917205909173058E1B9F0B0F94CC4252
:102960002617370714F5621B730B70934B056093A2
:102970004A050895161617060CF4A1CF620F731FAF
:102980009ECF161617060CF4B0CF620F731FADCF93
:10299000161617060CF4BFCF620F731FBCCF1616A6
:1029A000170674F2620F731FCBCF16161706ECF2E0
:1029B000620F731FDACFEF92FF920F931F93CF93A3
:1029C000DF930091351D8091321D8C718C3021F484
:1029D00080912B1D202F81FD20E0E090261DF0909E
:1029E000271D6091A70D7091A80D8091210B9091EA
:1029F000220B8E199F090F94CC426150710910E08F
:102A000030E0F901E00FF11FE617F7070CF0A9C05D
:102A10006E1B7F0BC091C206D091C306C617D707A5
:102A200020F4061717070CF0BE012C0F3D1F2617C8
:102A3000370708F4B90170936D0560936C056091D8
:102A4000A70D7091A80D80917805909179058E1948
:102A50009F090F94CC4261507109E617F7070CF0FB
:102A600087C06E1B7F0BC617D70720F40617170702
:102A70000CF0BE012617370708F4B90170936B05F7
:102A800060936A056091A70D7091A80D80917605FD
:102A9000909177058E199F090F94CC42615071096E
:102AA000E617F7070CF06BC06E1B7F0BC617D70736
:102AB00020F4061717070CF0BE012617370708F495
:102AC000B90170936905609368056091A70D7091D5
:102AD000A80D80917405909175058E199F090F942A
:102AE000CC4261507109E617F7070CF04FC06E1B1E
:102AF0007F0BC617D70720F4061717070CF0BE0187
:102B00002617370708F4B9017093670560936605C7
:102B10006091A70D7091A80D809172059091730539
:102B20008E199F090F94CC4261507109E617F7077F
:102B3000A4F56E1B7F0BC617D70720F406171707DF
:102B40000CF0BE012617370708F4B90170934B0546
:102B500060934A05DF91CF911F910F91FF90EF9005
:102B60000895161617060CF455CF6E0F7F1F52CF1F
:102B7000161617060CF477CF6E0F7F1F74CF16163C
:102B800017060CF493CF6E0F7F1F90CF1616170603
:102B90000CF4AFCF6E0F7F1FACCF161617065CF28A
:102BA0006E0F7F1FC8CFFC01408151814B5B5E4F90
:102BB00022812051220F330BCA01821B930B0895EF
:102BC000FC01408151814B595F4F22812854220FD3
:102BD000330BCA01821B930B0895FC014081518184
:102BE0004B5A5F4F22812054220F330BCA01821BA4
:102BF000930B0895FC01408151814B595F4F228115
:102C00002854220F330BCA01821B930B0895FC0139
:102C1000408151814B5D5F4F22812451220F330B44
:102C2000CA01821B930B0895FC0140815181435ED0
:102C30005F4F22812051220F330BCA01821B930B5D
:102C40000895FC01408151814F5B5F4F22812A52E0
:102C5000220F330BCA01821B930B0895FC014081A4
:102C600051814B5C5F4F22812452220F330BCA01EA
:102C7000821B930B08958F929F92AF92BF92CF9237
:102C8000DF92EF92FF920F931F93CF93DF93F8940D
:102C9000C090AD0DD090AE0DE090AF0DF090B00DA6
:102CA0008090A90D9090AA0DA090AB0DB090AC0DA6
:102CB000C091C006D091C1060E94D9DD609346053F
:102CC0007093470580934805909349057894CE0109
:102CD0000197880F991F2091261D3091271D820F83
:102CE000931FA6010D2C000C660B770B0091460577
:102CF000109147052091480530914905041B150B9B
:102D0000260B370BA6014819590957FF02C04F5F20
:102D10005F4F55954795052E000C660B770B4017B6
:102D200051076207730708F40196803D22E092077D
:102D300014F0805D92402091050230910602281720
:102D4000390714F4821B930B97FF02C088599E4FDA
:102D5000DF91CF911F910F91FF90EF90DF90CF9077
:102D6000BF90AF909F908F9008950E94D9DD60939F
:102D7000600570936105809362059093630580916F
:102D8000600590916105A0916205B0916305409145
:102D9000D70C5091D80C6091D90C7091DA0C841B2F
:102DA000950BA60BB70B80935C0590935D05A093E4
:102DB0005E05B0935F058091600590916105A091DB
:102DC0006205B09163058093D70C9093D80CA093C3
:102DD000D90CB093DA0C20912C1D322F31708091D8
:102DE000D40C9091D50C892B69F1E091AE06F0914D
:102DF000AF0680819091AD06892391E009F490E0BF
:102E0000931701F18091C0069091C1064091D40CB6
:102E10005091D50C841B90919F1E91114BC09091A5
:102E2000610C907F903499F591EF980F933098F45E
:102E300080E190E09093C1068093C00681E080938A
:102E40009F1E08958091C0069091C1069093D50C65
:102E50008093D40C089595EF980F933018F486E67C
:102E600090E0E8CF99EF980F933018F48CEB90E056
:102E7000E1CF8350833018F482E191E0DBCF1092F0
:102E80009F1E80914E1F8F5F80934E1F0895903636
:102E900031F483508330F0F48CE790E0CBCF90385E
:102EA00031F486508330B0F488E390E0C3CF1092C1
:102EB0009F1E089527FF0EC09091610C907F903463
:102EC00049F48F50833030F480E190E09093C10654
:102ED0008093C00608950E94D9DD609360057093C9
:102EE0006105809362059093630580915C059091E4
:102EF0005D05A0915E05B0915F0580933E059093BE
:102F00003F05A0934005B0934105809160059091E5
:102F10006105A0916205B09163054091D70C509175
:102F2000D80C6091D90C7091DA0C841B950BA60B10
:102F3000B70B80935C0590935D05A0935E05B093FD
:102F40005F058091600590916105A0916205B09147
:102F500063058093D70C9093D80CA093D90CB093B1
:102F6000DA0C80919F1E811117C08091D40C909132
:102F7000D50C029791F481E090E09093C106809384
:102F8000C00680939F1E8091D40C9091D50C019621
:102F90009093D50C8093D40C08958CED95E0A0E02F
:102FA000B0E08093C8069093C906A093CA06B09378
:102FB000CB0680913E0590913F05A0914005B091D0
:102FC0004105B695A7959795879580934C05909365
:102FD0004D05A0934E05B0934F0540915C0550916F
:102FE0005D0560915E0570915F0580914C05909143
:102FF0004D05A0914E05B0914F05481759076A0736
:103000007B0708F682E090E09093D50C8093D40C77
:10301000BACF0E94D9DD60936005709361058093FB
:103020006205909363058091600590916105A09180
:103030006205B09163054091D70C5091D80C609116
:10304000D90C7091DA0C841B950BA60BB70B8093EF
:103050005C0590935D05A0935E05B0935F0580913C
:10306000F31E81FD04C080919F1E81110CC08CED68
:1030700095E0A0E0B0E08093C8069093C906A093C5
:10308000CA06B093CB0640915C0550915D056091F6
:103090005E0570915F058091C4069091C506A09170
:1030A000C606B091C706481759076A077B0708F498
:1030B00060C08091600590916105A0916205B0911A
:1030C00063058093D70C9093D80CA093D90CB09340
:1030D000DA0C80915C0590915D05A0915E05B09140
:1030E0005F0580933E0590933F05A0934005B09304
:1030F00041058091D40C9091D50C01969093D50CFC
:103100008093D40C8091C0069091C106019789F5F7
:103110004091600550916105609162057091630571
:103120008091AD0D9091AE0DA091AF0DB091B00D0D
:1031300084179507A607B707E0F480916005909182
:103140006105A0916205B09163054091AD0D50916C
:10315000AE0D6091AF0D7091B00D841B950BA60B59
:10316000B70B80934F0890935008A0935108B093E9
:10317000520808958091580590915905A0915A05DB
:10318000B0915B0580933E0590933F05A093400569
:10319000B09341050E94D9DD6093500570935105AD
:1031A000809352059093530580915005909151055D
:1031B000A0915205B09153054091AD0D5091AE0DC7
:1031C0006091AF0D7091B00D841B950BA60BB70BE2
:1031D0008093580590935905A0935A05B0935B05C9
:1031E0008091C0069091C10601969093C10680938C
:1031F000C0068091B10D80628093B10D8091C006B0
:103200009091C1060D9749F480919F1E882329F063
:103210001092C1061092C00608958091C006909148
:10322000C106019721F480919F1E811131C08091C8
:103230003E0590913F05A0914005B0914105B6959E
:10324000A7959795879580934C0590934D05A093EE
:103250004E05B0934F054091580550915905609126
:103260005A0570915B0580914C0590914D05A09198
:103270004E05B0914F05481759076A077B07D8F5E7
:103280001092C1061092C00681E080939F1E08959F
:103290008091FC069091FD06A091FE06B091FF067C
:1032A0008093BC069093BD06A093BE06B093BF0664
:1032B0008091500590915105A0915205B091530510
:1032C0008093FC069093FD06A093FE06B093FF0644
:1032D0008091111F9091121FA091131FB091141F84
:1032E0000196A11DB11D8093111F9093121FA093F1
:1032F000131FB093141F8091AD0D9091AE0DA0914E
:10330000AF0DB091B00D8093A90D9093AA0DA0932D
:10331000AB0DB093AC0D8091500590915105A091EB
:103320005205B09153058093AD0D9093AE0DA093CF
:10333000AF0DB093B00D08958091C0069091C10675
:10334000499719F410929F1E08950E94D9DD609349
:1033500050057093510580935205909353058091C9
:10336000500590915105A0915205B091530540919F
:10337000AD0D5091AE0D6091AF0D7091B00D841BED
:10338000950BA60BB70B8093580590935905A09306
:103390005A05B0935B058091C0069091C106892BB8
:1033A00009F05DC081E090E09093C1068093C00673
:1033B0008091FC069091FD06A091FE06B091FF065B
:1033C0008093BC069093BD06A093BE06B093BF0643
:1033D0008091500590915105A0915205B0915305EF
:1033E0008093FC069093FD06A093FE06B093FF0623
:1033F0008091BB0691E089278093BB0690939F1E26
:103400008091111F9091121FA091131FB091141F52
:103410000196A11DB11D8093111F9093121FA093BF
:10342000131FB093141F8FE090E09093A80D80932A
:10343000A70D8091B10D80628093B10D80915005F0
:1034400090915105A0915205B09153058093AD0D17
:103450009093AE0DA093AF0DB093B00D08958091F1
:10346000C0069091C10601969093C1068093C00654
:10347000A091C006B091C106E091C006F091C106CE
:10348000AA0FBB1FA653B94FEE0FFF1FE853F94F0A
:103490008D919C9120813181821B930BC6CF8091AD
:1034A0009F1E0E94D9DD6093600570936105809333
:1034B0006205909363058091600590916105A091EC
:1034C0006205B09163054091D70C5091D80C609182
:1034D000D90C7091DA0C841B950BA60BB70B80935B
:1034E0005C0590935D05A0935E05B0935F054091E8
:1034F0005C0550915D0560915E0570915F0580915E
:10350000C4069091C506A091C606B091C70648179B
:1035100059076A077B0708F4B4C080916005909151
:103520006105A0916205B09163058093D70C9093DB
:10353000D80CA093D90CB093DA0C8091B10D8062B5
:103540008093B10D80915C0590915D05A0915E0521
:10355000B0915F05B695A795979587958093C4061A
:103560009093C506A093C606B093C70680919F1E90
:10357000811149C08CED95E0A0E0B0E08093C806D1
:103580009093C906A093CA06B093CB068091C40657
:103590009091C506A091C606B091C706B695A795AD
:1035A000979587958093C4069093C506A093C60609
:1035B000B093C706E091B106F091B20690812091D8
:1035C000B0068091610C807F922361F0803499F481
:1035D0008091C0069091C1060897A9F481E080937C
:1035E0009F1E11C0803479F48091C0069091C1066D
:1035F000059749F4F3CF803631F48091C00690915D
:10360000C106079759F32091A01E3091A11E809109
:103610003D1F90913E1F2817390720F080912C1DE7
:1036200087FF2FC080919F1E882359F18091610CE4
:10363000807F803431F50E94D9DD809136059091EC
:103640003705A0913805B0913905E091B106F091A8
:10365000B20680819091B006892399F08091C006CE
:103660009091C1068830910541F010929F1E809183
:103670004E1F8F5F80934E1F08959093C1068093D5
:10368000C0060895CF92DF92EF92FF92CF93DF931F
:103690000E94D9DD60936005709361058093620597
:1036A000909363058091600590916105A0916205FA
:1036B000B09163054091D70C5091D80C6091D90C12
:1036C0007091DA0C841B950BA60BB70B80935C05ED
:1036D00090935D05A0935E05B0935F0540915C05F6
:1036E00050915D0560915E0570915F058091C40603
:1036F0009091C506A091C606B091C7064817590714
:103700006A077B0708F4A5C0809160059091610568
:10371000A0916205B09163058093D70C9093D80C6B
:10372000A093D90CB093DA0C80915C0590915D0563
:10373000A0915E05B0915F0532E0B695A79597958B
:1037400087953A95D1F78093C4069093C506A093C8
:10375000C606B093C70680919F1E882331F1409121
:10376000111F5091121F6091131F7091141F8091AF
:10377000311D90E0B0E0A0E084179507A607B707D9
:10378000A0F48091351D90E02091C0063091C106D3
:103790008217930709F049C020912C1D27FF3BC0D9
:1037A0009093C1068093C00636C00E94D9DD609315
:1037B000AD0D7093AE0D8093AF0D9093B00D0E9440
:1037C000D9DD6B017C01C091351D2C2F30E050E01C
:1037D00040E060E87DE88BE590E00F94E042C21A9B
:1037E000D30AE40AF50AC092A90DD092AA0DE0927C
:1037F000AB0DF092AC0DD0E0D093C106C093C006E3
:103800001092C8061092C9061092CA061092CB06F2
:1038100081E080939F1E81E08093BB06DF91CF9172
:10382000FF90EF90DF90CF9008954091111F50913D
:10383000121F6091131F7091141F433051056105D1
:10384000710508F4A9CF20914E1F2F5F20934E1FC2
:10385000A3CF8091B20D9091B30DA091B40DB09112
:10386000B50DB695A795979587958093C4069093C7
:10387000C506A093C606B093C706D0CFCF92DF92FD
:10388000EF92FF920E94D9DD609332057093330569
:1038900080933405909335058091320590913305DE
:1038A000A0913405B091350540912E0550912F051A
:1038B0006091300570913105841B950BA60BB70BF9
:1038C00080932A0590932B05A0932C05B0932D058A
:1038D00080912E0590912F05A0913005B091310572
:1038E000892B8A2B8B2BC1F410922A0510922B0561
:1038F00010922C0510922D05809132059091330580
:10390000A0913405B091350580932E0590932F0535
:10391000A0933005B093310540912A0550912B05B5
:1039200060912C0570912D058091260590912705B9
:10393000A0912805B0912905481759076A077B0708
:1039400008F46DC08091B3069091B40601969093EF
:10395000B4068093B30680912A0590912B05A0911F
:103960002C05B0912D05B695A795979587958093D1
:10397000260590932705A0932805B0932905E0918B
:10398000390BF0913A0B1995893621E092071CF01A
:1039900088569140F9CF2091261D3091271D821B1A
:1039A000930B2091A41F2370223031F420919F1D8E
:1039B0003091A01D821B930B4091A21D9C01220FF0
:1039C000331F50E0A0E0B1E0A41BB50B0F944D45B0
:1039D0006B017C01A091671FB091681F9A010F9441
:1039E0005545C60ED71EE81EF91ECD2CDE2CEF2C39
:1039F000FF24E7FCFA94D092681FC092671F809161
:103A0000320590913305A0913405B091350580932E
:103A10002E0590932F05A0933005B0933105FF90AC
:103A2000EF90DF90CF900895CF92DF92EF92FF92C8
:103A30000E94D9DD609360057093610580936205F3
:103A4000909363058091600590916105A091620556
:103A5000B09163054091D70C5091D80C6091D90C6E
:103A60007091DA0C841B950BA60BB70B80935C0549
:103A700090935D05A0935E05B0935F058091D70C90
:103A80009091D80CA091D90CB091DA0C892B8A2B8B
:103A90008B2BC1F410925C0510925D0510925E05AF
:103AA00010925F058091600590916105A09162057B
:103AB000B09163058093D70C9093D80CA093D90C48
:103AC000B093DA0C40915C0550915D0560915E0504
:103AD00070915F058091C4069091C506A091C606BD
:103AE000B091C706481759076A077B0708F496C0C4
:103AF00080912E1D8F77813009F0A5C02091D70CC1
:103B00003091D80C4091D90C5091DA0C8091B706C5
:103B10009091B806A091B906B091BA06281B390B4E
:103B20004A0B5B0BA3E0B0E00F9464439695879536
:103B30007795679560935405709355058093560566
:103B4000909357058091D70C9091D80CA091D90CE7
:103B5000B091DA0C8093B7069093B806A093B9069B
:103B6000B093BA0640915C0550915D0560915E0589
:103B700070915F058091540590915505A09156056F
:103B8000B0915705481759076A077B0738F58091A8
:103B9000D40C9091D50C049708F580915C05909118
:103BA0005D05A0915E05B0915F0532E0B695A795E1
:103BB000979587953A95D1F78093C4069093C5065B
:103BC000A093C606B093C7068091D40C9091D50CF3
:103BD00001969093D50C8093D40C10C081E090E0B6
:103BE0009093D50C8093D40C8093BB061092C4069E
:103BF0001092C5061092C6061092C7068091600505
:103C000090916105A0916205B09163058093D70CF6
:103C10009093D80CA093D90CB093DA0C80919E1F8E
:103C200085FF57C08091BB06882309F452C0E091FC
:103C3000390BF0913A0B1995893621E09207ACF0D7
:103C400088569140F9CF8111D9CF81E08093BB068E
:103C500080915C0590915D05A0915E05B0915F0536
:103C6000B695A79597958795A7CF2091261D30915A
:103C7000271D821B930B2091A41F2370223031F447
:103C80002091611E3091621E821B930B4091A21DF8
:103C90009C01220F331F50E0A0E0B1E0A41BB50B44
:103CA0000F944D456B017C01A091531FB091541F9F
:103CB0009A010F945545C60ED71EE81EF91ECD2C4D
:103CC000DE2CEF2CFF24E7FCFA94D092541FC09214
:103CD000531FFF90EF90DF90CF900895CF93DF9325
:103CE0002091F01E26FD08C02091511F211107C010
:103CF0008091521F81112AC0DF91CF910895411107
:103D0000FBCFE091270CF091280CEE0FFF1FEE0F78
:103D1000FF1FE65DFC4F60837183828393838091F4
:103D2000270C9091280C8E37910508F0CBC080911C
:103D3000270C9091280C01969093280C8093270CC7
:103D40008091F01E8F7B8093F01ED6CFE091270CE0
:103D5000F091280CE555FD4F10822091B10630916D
:103D6000B206C091AE06D091AF06A091AB06B0915D
:103D7000AC068430B9F588819091AD06892349F06D
:103D8000E091270CF091280CE555FD4F8081816072
:103D900080838C919091AA06892349F0E091270CA9
:103DA000F091280CE555FD4F808182608083F901F8
:103DB00080819091B006892349F0E091270CF09121
:103DC000280CE555FD4F8081846080834230D1F519
:103DD000E091270CF091280CE555FD4F808188601B
:103DE000808330C0F90190812091B006922349F080
:103DF000E091270CF091280CE555FD4F90819160E2
:103E00009083833009F049C08C919091AA06892350
:103E100049F0E091270CF091280CE555FD4F808189
:103E20008260808388819091AD06892349F0E0917A
:103E3000270CF091280CE555FD4F8081846080832C
:103E40004111C6CF80919F1E882349F0E091270C35
:103E5000F091280CE555FD4F808180618083809131
:103E6000BB06E091270CF091280CE555FD4F882307
:103E700031F1808180628083C091270CD091280C21
:103E80000E94D9DDCC0FDD1FCC0FDD1FC65DDC4FDE
:103E9000688379838A839B8342CF88819091AD0622
:103EA000892349F0E091270CF091280CE555FD4F4E
:103EB0008081826080838C919091AA06B6CF8081A8
:103EC0008F7DD9CF8091F01E80643DCF8091B10D60
:103ED0008F7D8093B10D8091B10D80628093B10D83
:103EE000809105078330E1F4E091AB06F091AC06D8
:103EF00080819091AA068923F1F48091521F882332
:103F000019F18091B10D85FF1FC060912A05709154
:103F10002B0580912C0590912D0542E00C946E1E8E
:103F2000823079F4E091AB06F091AC0680819091FB
:103F3000AA06892311F7E0910307F0910407199568
:103F4000DCCF8130C1F3D9CF08958091B10D8F7D41
:103F50008093B10D8091B10D80628093B10D8091FD
:103F600008078330E1F4E091AE06F091AF0680815E
:103F70009091AD068923F1F48091521F882319F1A5
:103F80008091B10D85FF1FC060915C0570915D054A
:103F900080915E0590915F0541E00C946E1E823029
:103FA00079F4E091AE06F091AF0680819091AD0674
:103FB000892311F7E0910607F09107071995DCCFE7
:103FC0008130C1F3D9CF08958091B10D8F7D809359
:103FD000B10D809102078330F9F4E091B106F091C0
:103FE000B20680819091B006892329F59091511FE6
:103FF000992319F09091B10D95FF8091521F88235C
:1040000009F1609158057091590580915A05909178
:104010005B0540E00C946E1E823059F4E091B106CD
:10402000F091B20680819091B006892321F080E062
:10403000DDCF8130E1F7E0910007F091010719959C
:1040400081E0D4CF08950E94D9DD6093500570932C
:10405000510580935205909353058091500590919E
:104060005105A0915205B09153054091AD0D50916D
:10407000AE0D6091AF0D7091B00D841B950BA60B2A
:10408000B70B8093580590935905A0935A05B093A8
:104090005B05409158055091590560915A05709102
:1040A0005B058091C8069091C906A091CA06B0919F
:1040B000CB06481759076A077B0708F4BBC08091F5
:1040C000B10D80628093B10D8091C0069091C106C0
:1040D00001969093C1068093C0068091C00690918E
:1040E000C106019731F08091C0069091C1060597F5
:1040F000E1F581E090E09093C1068093C006809145
:10410000FC069091FD06A091FE06B091FF068093FB
:10411000BC069093BD06A093BE06B093BF068091E7
:10412000500590915105A0915205B091530580938F
:10413000FC069093FD06A093FE06B093FF0681E077
:1041400080939F1E8091111F9091121FA091131FA9
:10415000B091141F0196A11DB11D8093111F909362
:10416000121FA093131FB093141F80919F1E8823CA
:1041700009F460C08091F31E81FF0DC08091321D53
:1041800087FF09C08091C0069091C106019709F090
:1041900052C00E940FDC8091C0069091C106019729
:1041A00009F453C08091C0069091C106039709F4A9
:1041B0004CC08CE690E09093A80D8093A70D2091C1
:1041C00058053091590540915A0550915B05A3E07F
:1041D000B0E00F94644323E09695879577956795B3
:1041E0002A95D1F76093C8067093C9068093CA06D2
:1041F0009093CB068091AD0D9091AE0DA091AF0D37
:10420000B091B00D8093A90D9093AA0DA093AB0D22
:10421000B093AC0D8091500590915105A09152053D
:10422000B09153058093AD0D9093AE0DA093AF0D5B
:10423000B093B00D08958091C0069091C106039788
:1042400009F0A9CF0E9465DBA6CF88E490E09093A7
:10425000A80D8093A70D8091580590915905A091C4
:104260005A05B0915B058093C8069093C906A09348
:10427000CA06B093CB06BECF0F931F930E9482DE77
:1042800000918D0210918E0220918F023091900248
:10429000601B710B820B930B21E0693B7B40810516
:1042A000910508F420E0822F1F910F9108959C0141
:1042B00021503240283141E0340728F02F5F3E4F33
:1042C0002230310530F42091A01E3091A11E232B05
:1042D00019F5843023E0920709F4AFC208F0B6C0A4
:1042E0008D3042E0940709F42EC208F052C08530A8
:1042F00032E0930709F4EDC1F8F4813022E092072F
:1043000009F4C7C158F4811541E0940709F49EC12E
:104310008130914009F4B7C180E008952091171FC2
:10432000833032E0930709F4C5C108F4B9C121FF15
:10433000A8C10E941678A5C12091171F893032E0CC
:10434000930709F4E4C178F4873032E0930709F465
:10435000D9C108F4C8C121FF94C10E947877809127
:1043600030088B7FA4C18B3032E0930709F4E3C19E
:1043700008F4DCC121FF06C08091300898E089274D
:10438000809330088091300883FD7BC10E940F77B5
:1043900078C1843122E0920709F404C270F58031BB
:1043A00042E0940709F4E0C1D0F48E3032E0930784
:1043B00009F4D0C18F30924009F0AECF8091171F21
:1043C00081FF06C08091300890E1892780933008F2
:1043D0008091300884FD55C10E94B37652C120916E
:1043E000171F823132E0930709F4CDC108F4C3C12D
:1043F00021FF47C10E942A7644C1883122E09207FA
:1044000009F4EEC188F42091171F863142E0940729
:1044100009F4E1C108F4D0C121FF33C10E94A175A4
:10442000809130088F7743C1823043E0940709F4CC
:10443000E7C108F0F1C18130934009F06DCF809160
:10444000171F81FF1EC10E945FDC1BC1833143E047
:10445000940709F45BC208F061C08B3033E0930726
:1044600009F41AC270F5873023E0920709F4F6C107
:10447000D0F4853043E0940709F4E6C186309340D8
:1044800009F04ACF8091171F81FF06C080912F0845
:1044900092E0892780932F0880912F0881FDF1C039
:1044A0000E9465DBEEC02091171F893033E093072F
:1044B00009F4E3C108F4D9C121FFE3C00E9485DA01
:1044C000E0C02091171F8F3033E0930709F402C238
:1044D00078F48D3033E0930709F4F7C108F4E6C1AE
:1044E00021FFCFC00E94B5D980912F088F7E91C146
:1044F000813133E0930709F401C208F4FAC121FFC6
:1045000006C080912F0890E2892780932F08809120
:104510002F0885FDB6C00E942DD9B3C0823022E39A
:104520009207F0F5811532E3930708F0AAC08631AF
:1045300043E0940709F4FBC1D0F4843133E09307DE
:1045400009F4EBC18531934009F0E6CE8091171F45
:1045500081FF06C080912F0890E4892780932F085F
:1045600080912F0886FD8DC00E94A5D88AC0873112
:1045700023E0920709F4E2C18831934009F0CCCEE0
:104580008091171F81FF05C080912F08805880936C
:104590002F0880912F0887FD74C00E9437D871C002
:1045A000833049E9940709F41BC268F5813039E981
:1045B000930709F4E3C108F0FAC18115994909F09C
:1045C000ABCE8091A30C8370813009F0C1C1E09122
:1045D000BB0CE295EF70F0E0EE0FFF1FE45EF04ED3
:1045E000808191816CE370E00F94FF427093A50C81
:1045F0006093A40C81E00E9413E880913F1F8860C3
:1046000080933F1F3EC0853039E9930709F41AC2F1
:1046100008F4FFC18630994909F07ECE20915D1FD4
:1046200030915E1F2115310561F1A0E1B7E20F94D1
:1046300077432091A01E3091A11E50E040E00F94DE
:1046400013433093B20C2093B10CD4CF8091171F39
:104650008D7F8093171F0E940FDC0E9465DB0E94F4
:10466000CDDA0E943DDA0E94B5D90E944A780E94B4
:10467000E1770E9478770E940F77109230081092AD
:104680002F0881E008958091171F82608093171F83
:10469000F8CF8091171F81FFF4CF0E947F78F1CF70
:1046A00021FFEFCF0E944A78809130088E7F80935F
:1046B0003008E7CF21FF06C08091300891E08927BC
:1046C000809330088091300880FDDBCF0E944A78CB
:1046D000D8CF8091171F81FFD4CF0E94E1778091BE
:1046E00030088D7FE4CF21FF06C08091300892E032
:1046F0008927809330088091300881FDC2CF0E94C5
:10470000E177BFCF21FFBDCF0E94AD77BACF21FFA8
:1047100006C08091300894E089278093300880910A
:10472000300882FDAECF0E947877ABCF21FFA9CFB2
:104730000E944477A6CF21FFA4CF0E940F778091DB
:104740003008877FB4CF8091171F81FF9ACF0E94D6
:10475000E27697CF8091171F81FF93CF0E94B376A7
:10476000809130088F7EA3CF8091171F81FF89CF62
:104770000E94867686CF21FF84CF0E945776809153
:1047800030088F7D94CF21FF06C08091300890E2E1
:104790008927809330088091300885FD72CF0E9470
:1047A00057766FCF8091171F81FF6BCF0E94FB75EB
:1047B000809130088F7B7BCF21FF06C0809130082D
:1047C00090E48927809330088091300886FD59CF86
:1047D0000E94FB7556CF21FF54CF0E94CF7551CF59
:1047E0008091171F81FF05C0809130088058809309
:1047F00030088091300887FD44CF0E94A17541CFD9
:104800008091171F81FF3DCF0E940FDC80912F0800
:104810008E7F80932F0835CF8091171F81FF06C0B0
:1048200080912F0891E0892780932F0880912F088D
:1048300080FD27CF0E940FDC24CF8091171F81FFBE
:1048400020CF0E94BDDB1DCF8091171F81FF19CFA4
:104850000E9465DB80912F088D7FDBCF8091171F31
:1048600081FF0FCF0E9419DB0CCF21FF0ACF0E94DE
:10487000CDDA80912F088B7FCCCF21FF06C08091AD
:104880002F0894E0892780932F0880912F0882FDBC
:10489000F8CE0E94CDDAF5CE8091171F81FFF1CEC0
:1048A0000E943DDA80912F08877FB3CF21FF06C099
:1048B00080912F0898E0892780932F0880912F08F6
:1048C00083FDDFCE0E943DDADCCE21FFDACE0E94EE
:1048D000F9D9D7CE21FF06C080912F0890E1892712
:1048E00080932F0880912F0884FDCBCE0E94B5D9EC
:1048F000C8CE21FFC6CE0E9471D9C3CE21FFC1CE42
:104900000E942DD980912F088F7D83CF8091171F12
:1049100081FFB7CE0E94E9D8B4CE8091171F81FFE6
:10492000B0CE0E94A5D880912F088F7B72CF809146
:10493000171F81FFA6CE0E946ED8A3CE8091171FAD
:1049400081FF9FCE0E9437D880912F088F7761CF4B
:1049500080E00E9476F79B01AC01211531054105ED
:10496000510509F48ECE60E077E883E993E00F9477
:1049700013433093A50C2093A40C3CCE20915D1FD3
:1049800030915E1F2115310509F47BCEA0E1B7E21D
:104990000F9477432091A01E3091A11E50E040E07B
:1049A0000F9413433093A80C2093A70C23CE20918F
:1049B0005D1F30915E1F2115310509F462CEA0E123
:1049C000B7E20F9477432091A01E3091A11E50E0D2
:1049D00040E00F9413433093AA0C2093A90C0ACE05
:1049E00020915D1F30915E1F2115310509F449CEDC
:1049F000A0E1B7E20F9477432091A01E3091A11E51
:104A000050E040E00F9413433093AC0C2093AB0C78
:104A1000F1CD20915D1F30915E1F2115310509F404
:104A200030CEA0E1B7E20F9477432091A01E3091E1
:104A3000A11E50E040E00F9413433093AE0C20933E
:104A4000AD0CD8CD20915D1F30915E1F2115310531
:104A500009F417CEA0E1B7E20F9477432091A01E8E
:104A60003091A11E50E040E00F9413433093B00CFE
:104A70002093AF0CBFCDCF93DF9300D01F92CDB763
:104A8000DEB7982F803108F0E7C0E82FF0E08827E4
:104A9000E35BFA4D8F4F0D943E456325E2255D257E
:104AA0006B25F1257225FA257925892503260C2603
:104AB000B125B9251526DA251E26603221E07207B8
:104AC00008F410C190E0892F0F900F900F900F9075
:104AD000DF91CF910895603281E0780798F783EDF8
:104AE00098E102C16032E1E07E0760F785E496E17B
:104AF000FBC06035710508F408C1603A710508F41F
:104B00001AC1603F7105F0F620EA30E08EED95E1C4
:104B100000C16033710508F422C16036710508F4E4
:104B200039C16039710508F43AC1603C710508F477
:104B30003BC1603F710508F43CC16032F1E07F0782
:104B400008F43CC1603521E0720708F43CC16038CC
:104B500081E0780708F0B6CF80E591E043EC51E1C1
:104B600002C16032E1E07E0708F0ACCF8AE19AE151
:104B7000BBC06035710508F4E3C0603A710508F404
:104B8000E4C0683B710508F09DCF605A71098CE95B
:104B900091E19A8389837C836B836031710508F48A
:104BA0007CC0CE0101966431710508F473C00E9487
:104BB00007165BC06032F1E07F0708F083CF8CE816
:104BC00097E192C06038710508F07CCF30E020E0BA
:104BD0008DE39CE0621B730B860F971FFC01908195
:104BE00072CF6038710508F06DCF30E020E086E2CA
:104BF0009DE1F0CF6038710508F064CF30E020E02F
:104C00008EE99FE1E7CF603C710508F05BCF30E0B3
:104C100020E083EE9CE0DECF603C710508F052CFCF
:104C200030E020E08FED9DE1D5CF6038710508F0D0
:104C300049CF30E020E082ED99E0CCCF60357105BE
:104C400008F488C06F3F710511F008F03BCF20E5F4
:104C500030E087E69BE0BECF0F945C45CE01019625
:104C60002A32310568F00E942116FC0160817181B1
:104C700077FF02C06F5F7F4F75956795962F23CFA3
:104C80000E942E16FC018081918164E670E00F94F1
:104C9000CC42F4CF0E941416F5CFE62FE370EA5F02
:104CA000EE0FE61BF0E0E456FE4E72C0CE01019618
:104CB0006834710518F00E94FA15D7CF0E94ED15DF
:104CC000E1CF6031F1E07F0728F0CE0101960E942C
:104CD000D315CBCF660F770B861B970BFC01EB5DD3
:104CE000FE4FD1CF81E69BE19A8389837C836B83DE
:104CF0006F3F710509F028F7262F2F702858220FD3
:104D0000261B820F911DFC0143C030E020E087E7A5
:104D100095E1621B730B9A8389837C836B83603478
:104D2000710520F6E62FE770E45EEE0FE61BE80F54
:104D3000F92FF11D2DC020E530E089EA94E1E9CF9B
:104D400030E020E08BED93E1E4CF20E530E082E439
:104D500094E1DFCF30E020E080E195E1DACF90E030
:104D600080E048E953E19B01281B390B5A834983B2
:104D70003C832B832432310508F070CF822F66E00C
:104D80000F943245915F990F921B490F511DFA0103
:104D9000978199CE80E390E045E553E1E4CF80E64A
:104DA00090E042E153E1DFCF80E990E04FEC52E147
:104DB000DACF80EC90E04CE852E1D5CF80EF90E084
:104DC00049E452E1D0CF80E291E046E052E1CBCF1E
:104DD000EF92FF921F93CF93DF9300D01F92CDB736
:104DE000DEB7142F803108F001C1E82FF0E08827EA
:104DF000E350F94D8F4F0D943E451227AC270D27F8
:104E00001C27BB272527C4272E274027CD27D62799
:104E10006A277427DF27A227E827603221E072077C
:104E200008F434C10F900F900F900F90DF91CF9145
:104E30001F91FF90EF900895603241E0740790F762
:104E400093EDE92E98E1F92E25C1603281E07807D3
:104E500048F785E4E82E86E1F82E1CC1603571051F
:104E600008F424C1603A710508F436C1603F710549
:104E7000C8F680EA90E05EEDE52E55E1F52E1CC106
:104E80006033710508F444C16036710508F45EC1F1
:104E90006039710508F461C1603C710508F464C1B2
:104EA000603F710508F467C16032E1E07E0708F4F5
:104EB00069C16035F1E07F0708F46BC1603821E01B
:104EC000720708F0AFCF80E591E023ECE22E21E1FC
:104ED000F22E24C1603241E0740708F0A3CFBAE19A
:104EE000EB2EBAE1FB2ED6C06035710508F4FBC08D
:104EF000603A710508F4FEC0683B710508F092CF76
:104F0000605A71098CE991E19A8389837C836B8370
:104F10006031710508F48EC0CE01019664317105CF
:104F200008F481C00E940716212F30E0220F331FA2
:104F3000FC01318320838FEF9FE790939F11809333
:104F40009E1170CF603281E0780708F06BCFACE83B
:104F5000EA2EA7E1FA2E9EC06038710508F062CFF4
:104F600030E020E08DE39CE0621B730B860F971FFF
:104F7000FC01108357CF6038710508F053CF30E043
:104F800020E086E29DE1F0CF6038710508F04ACF5D
:104F900030E020E08EE99FE1E7CF603C710508F04A
:104FA00041CF30E020E083EE9CE0DECF603C710535
:104FB00008F038CF30E020E08FED9DE1D5CF6038AC
:104FC000710508F02FCF30E020E082ED99E0CCCFE2
:104FD0006035710508F495C06F3F710511F008F058
:104FE00021CF20E530E087E69BE0BECF0F945C4503
:104FF000CE0101962A32310538F00E942116212F68
:1050000030E0220F331F06C00E942E16F4E61F9FC9
:1050100090011124FC01318320838FEF9FE7F7017A
:1050200093838283FFCE0E941416F4E61F9F9001A3
:1050300011247ECFE62FE370EA5FEE0FE61BF0E06F
:10504000E456FE4E478377CFCE0101966834710552
:1050500018F00E94FA15D3CF0E94ED15D7CF60311A
:10506000F1E07F0728F0CE0101960E94D315C7CF4B
:10507000660F770BF701E61BF70BEB5DFE4F24E69F
:10508000129FC001112491838083C7CF21E6E22EB5
:105090002BE1F22EFA82E9827C836B836F3F7105EC
:1050A00009F0E8F6E62FEF70E85813C090E080E0D2
:1050B000F7E7EF2EF5E1FF2E681B790BFA82E98204
:1050C0007C836B836034710508F0BECFE62FE770F8
:1050D000E45EEE0FE61B35C080E590E0E9EAEE2ED7
:1050E000E4E1FE2EE9CF90E080E04BEDE42E43E1D9
:1050F000F42EE2CF80E590E032E4E32E34E1F32EAB
:10510000DBCF90E080E020E1E22E25E1F22ED4CF4B
:1051100090E080E0B8E9EB2EB3E1FB2E9B01281B69
:10512000390BFA82E9823C832B832432310508F063
:105130005FCF822F66E00F943245EFE0E90FEE0F6C
:10514000E21BEE0DFF2DF11D178367CF80E390E08A
:10515000A5E5EA2EA3E1FA2EE1CF80E690E0F2E1A8
:10516000EF2EF3E1FF2EDACF80E990E0EFECEE2EA8
:10517000E2E1FE2ED3CF80EC90E05CE8E52E52E138
:10518000F52ECCCF80EF90E049E4E42E42E1F42EFE
:10519000C5CF80E291E036E0E32E32E1F32EBECFC0
:1051A000CF93C82F843670F465E770E18EE79FE0F7
:1051B0000F943F0BCA3030F463E770E18EE79FE055
:1051C0000F943F0B6C2F70E090E080E04AE00F946A
:1051D000850F67E770E18EE79FE0CF910D943F0B5D
:1051E0000F931F93CF93DF93EC018B01C017D1076F
:1051F00071F0699170E090E080E04AE00F94850FD3
:1052000061E770E18EE79FE00F943F0BEFCFDF91F6
:10521000CF911F910F910D94700F0F931F93CF9308
:10522000DF93EC018B01C017D10721F089910F9416
:10523000CB0FF9CFDF91CF911F910F9108958EE79A
:105240009FE00E945CD3181619062CF48EE79FE0AD
:105250000F94CE09F4CF0895CF93C82F8EE79FE027
:105260000F94BF09892BD1F36C2F8EE79FE0CF916C
:105270000D94040ACF93C82F892F0E942C298C2FBC
:10528000CF910C942C29DF92EF92FF920F931F93F2
:10529000CF93DF93EC018B0180912002882321F0D2
:1052A000109220021092051F80919F1E3091F11ED6
:1052B0002091F11E90E09195819591098327807846
:1052C000992782278093F11E1092B90DD12CED2CD5
:1052D000F12CE016F10658F4C7018C0F9D1F0E94B7
:1052E0009CD0F701E754F24F8183D394F0CF8091A3
:1052F0003F1F877F80933F1FDF91CF911F910F91B9
:10530000FF90EF90DF900895CF93DF93EC0181E061
:1053100090E09093B80D8093B70DCE010E943A298A
:10532000D093C109C093C009BE0190E080E00F9402
:105330009B0A9093BF098093BE09249621E030E038
:10534000C817D90711F430E020E03093B80D20934E
:10535000B70DDF91CF910895E091351DF0E088E61B
:1053600091E0BF010F94CC427093A80D6093A70DFC
:1053700080912B1D81FF09C080ED92E0BF010F9449
:10538000CC427093A80D6093A70D8FEF90E090939F
:10539000C1068093C0068CE291E0E89F9001E99FEE
:1053A000300DF89F300D1124032E000C440B550BCB
:1053B00060E472E48FE090E00F94E0422093C8062E
:1053C0003093C9064093CA065093CB0681E493E01C
:1053D000A0E0B0E08093C4069093C506A093C606F3
:1053E000B093C7068091B10D8E7F8093B10D8091EF
:1053F000B10D82608093B10D8091B10D8064809376
:10540000B10D8091B10D88608093B10D2091A70DF1
:105410003091A80DA5E0BDE00F94774360931C0286
:1054200070931D0280931E0290931F020895209195
:10543000370B3091380B232B09F058C22091A01E56
:105440003091A11E232B09F451C220916C0530919B
:105450006D052617370709F070C02091CE103091E6
:10546000CF102330310561F5409124015091250181
:10547000A091210BB091220BA81BB90B80911702B0
:1054800090911802A817B907B4F0A81BB90B209186
:105490001F0B3091200B0F945545F6E0969587959C
:1054A00077956795FA95D1F7640F751F7093290169
:1054B000609328010895B7FFEACFA80FB91FE7CF7F
:1054C0004091111F5091121F6091131F7091141F72
:1054D000473051056105710508F408C24091240167
:1054E00050912501A091210BB091220BA81BB90B63
:1054F0008091170290911802A817B907CCF0A81B49
:10550000B90B20911F0B3091200B0F945545E6E00D
:105510009695879577956795EA95D1F7640F751FEE
:105520007093DC106093DB1081E08093E2100895AB
:10553000B7FFE7CFA80FB91FE4CF20916A053091DC
:105540006B052617370709F070C02091B510309110
:10555000B6102330310561F54091240150912501A9
:10556000A0917805B0917905A81BB90B809117021D
:1055700090911802A817B907B4F0A81BB90B209195
:105580001F0B3091200B0F94554536E0969587956B
:10559000779567953A95D1F7640F751F70932B0136
:1055A00060932A010895B7FFEACFA80FB91FE7CF8C
:1055B0004091111F5091121F6091131F7091141F81
:1055C000473051056105710508F490C140912401EF
:1055D00050912501A0917805B0917905A81BB90BD0
:1055E0008091170290911802A817B907CCF0A81B58
:1055F000B90B20911F0B3091200B0F94554526E0DD
:1056000096958795779567952A95D1F7640F751FBD
:105610007093C3106093C21081E08093C910089505
:10562000B7FFE7CFA80FB91FE4CF209168053091ED
:1056300069052617370709F070C020919C1030913A
:105640009D102330310561F54091240150912501D1
:10565000A0917605B0917705A81BB90B8091170230
:1056600090911802A817B907B4F0A81BB90B2091A4
:105670001F0B3091200B0F945545B6E096958795FA
:1056800077956795BA95D1F7640F751F70932D01C3
:1056900060932C010895B7FFEACFA80FB91FE7CF99
:1056A0004091111F5091121F6091131F7091141F90
:1056B000473051056105710508F418C14091240176
:1056C00050912501A0917605B0917705A81BB90BE3
:1056D0008091170290911802A817B907CCF0A81B67
:1056E000B90B20911F0B3091200B0F945545A6E06C
:1056F0009695879577956795AA95D1F7640F751F4D
:105700007093AA106093A91081E08093B01008955F
:10571000B7FFE7CFA80FB91FE4CF209166053091FE
:1057200067052617370709F070C020918310309164
:1057300084102330310561F54091A4005091A500FB
:10574000A0917405B0917505A81BB90B8091170243
:1057500090911802A817B907B4F0A81BB90B2091B3
:105760001F0B3091200B0F945545F6E096958795C9
:1057700077956795FA95D1F7640F751F7093A90017
:105780006093A8000895B7FFEACFA80FB91FE7CF2D
:105790004091111F5091121F6091131F7091141F9F
:1057A000473051056105710508F4A0C04091A4007F
:1057B0005091A500A0917405B0917505A81BB90B77
:1057C0008091170290911802A817B907CCF0A81B76
:1057D000B90B20911F0B3091200B0F945545E6E03B
:1057E0009695879577956795EA95D1F7640F751F1C
:1057F000709391106093901081E0809397100895BA
:10580000B7FFE7CFA80FB91FE4CF20914A05309129
:105810004B052617370709F069C020916A103091AF
:105820006B102330310561F54091A4005091A50023
:10583000A0917205B0917305A81BB90B8091170256
:1058400090911802A817B907B4F0A81BB90B2091C2
:105850001F0B3091200B0F94554536E09695879598
:10586000779567953A95D1F7640F751F7093AD00E2
:105870006093AC000895B7FFEACFA80FB91FE7CF38
:105880004091111F5091121F6091131F7091141FAE
:10589000473051056105710548F14091A4005091D0
:1058A000A500A0917205B0917305A81BB90B80915A
:1058B000170290911802A817B907CCF0A81BB90BD2
:1058C00020911F0B3091200B0F94554526E09695A3
:1058D0008795779567952A95D1F7640F751F709313
:1058E00078106093771081E080937E100895B7FF61
:1058F000E7CFA80FB91FE4CF0E94D9DD6093500510
:1059000070935105809352059093530580915005F3
:1059100090915105A0915205B09153054091AD0D64
:105920005091AE0D6091AF0D7091B00D841B950B31
:10593000A60BB70B8093580590935905A0935A0571
:10594000B0935B05409158055091590560915A05F7
:1059500070915B058091C8069091C906A091CA0616
:10596000B091CB06481759076A077B0708F4A8C10E
:105970008091C0069091C10601969093C1068093D4
:10598000C0068091D60C8F5F8093D60C8091B10DAC
:1059900080628093B10D8091AD0D9091AE0DA0917C
:1059A000AF0DB091B00D8093A90D9093AA0DA09367
:1059B000AB0DB093AC0D8091500590915105A09125
:1059C0005205B09153058093AD0D9093AE0DA09309
:1059D000AF0DB093B00D8091C0069091C1060E97A7
:1059E00058F01092C1061092C00610929F1E80912E
:1059F0004E1F8F5F80934E1F8091D40C9091D50CD9
:105A000081309105A1F0D0F18230910551F10397D9
:105A100009F463C010929F1E8091B10D8F7B80931B
:105A2000B10D80914E1F8F5F80934E1F23C08091D8
:105A3000C0069091C1060597D1F08091C006909163
:105A4000C1060B97A1F010929F1E80914E1F8F5F91
:105A500080934E1F85E090E09093C1068093C0062E
:105A600009C08091C0069091C106089761F581E058
:105A700080939F1E1092D50C1092D40C80919F1E83
:105A8000882309F41DC18091F31E81FF3AC08091E3
:105A9000321D87FF36C08091C0069091C1060197E4
:105AA00061F18091C0069091C106079731F1809114
:105AB000C0069091C106049709F0B2C00E9465DB50
:105AC0000E943DDA1EC010929F1E80914E1F8F5F74
:105AD00080934E1F88E090E0BFCF8091C0069091E8
